:100000000C9434000C9446000C9446000C9446006A
:100010000C9446000C9446000C9446000C94460048
:100020000C9446000C9446000C9446000C94460038
:100030000C9446000C9446000C9446000C94460028
:100040000C9446000C9446000C9446000C94460018
:100050000C9446000C9446000C9446000C94460008
:100060000C9446000C94460011241FBECFEFD8E03C
:10007000DEBFCDBF21E0A0E0B1E001C01D92AC30F9
:10008000B207E1F70E9410030C943B030C940000AC
:100090005F9A0000000000005F9808955F9A0000DA
:1000A00000000000000000000000000000005F9859
:1000B0000895579A08951F93CF93DF93D82F162F43
:1000C000C42F67FF03C00E944E0002C00E94480078
:1000D00016FF03C00E944E0002C00E94480015FF98
:1000E00003C00E944E0002C00E94480014FF03C0DB
:1000F0000E944E0002C00E94480013FF03C00E94ED
:100100004E0002C00E94480012FF03C00E944E0031
:1001100002C00E94480011FF03C00E944E0002C0AE
:100120000E94480010FF03C00E944E0002C00E94BF
:100130004800D7FF03C00E944E0002C00E94480042
:10014000D6FF03C00E944E0002C00E944800D5FFA7
:1001500003C00E944E0002C00E944800D4FF03C0AA
:100160000E944E0002C00E944800D3FF03C00E94BC
:100170004E0002C00E944800D2FF03C00E944E0001
:1001800002C00E944800D1FF03C00E944E0002C07E
:100190000E944800D0FF03C00E944E0002C00E948F
:1001A0004800C7FF03C00E944E0002C00E944800E2
:1001B000C6FF03C00E944E0002C00E944800C5FF57
:1001C00003C00E944E0002C00E944800C4FF03C04A
:1001D0000E944E0002C00E944800C3FF03C00E945C
:1001E0004E0002C00E944800C2FF03C00E944E00A1
:1001F00002C00E944800C1FF03C00E944E0002C01E
:100200000E944800C0FF05C0DF91CF911F910C9460
:100210004E00DF91CF911F910C9448008F929F92D6
:10022000AF92BF92CF92DF92EF92FF92CF93DF9384
:1002300000D000D0CDB7DEB76C01EE24FF24872EAE
:10024000982EA92EBB2469837A838B839C8387FE97
:1002500007C00E944E0069817A818B819C8106C013
:100260000E9448009C818B817A81698169837A83AD
:100270008B839C8386FE07C00E944E0069817A8131
:100280008B819C8106C00E9448009C818B817A8171
:10029000698169837A838B839C8385FE07C00E9472
:1002A0004E0069817A818B819C8106C00E94480042
:1002B0009C818B817A81698169837A838B839C831A
:1002C00084FE07C00E944E0069817A818B819C81E7
:1002D00006C00E9448009C818B817A816981698374
:1002E0007A838B839C8383FE07C00E944E006981C2
:1002F0007A818B819C8106C00E9448009C818B8101
:100300007A81698169837A838B839C8382FE07C0AB
:100310000E944E0069817A818B819C8106C00E9477
:1003200048009C818B817A81698169837A838B8380
:100330009C8381FE07C00E944E0069817A818B8177
:100340009C8106C00E9448009C818B817A816981D2
:1003500069837A838B839C8380FE07C00E944E0052
:1003600069817A818B819C8106C00E9448009C81B2
:100370008B817A81698169837A838B839C83C7FEB1
:1003800007C00E944E0069817A818B819C8106C0E2
:100390000E9448009C818B817A81698169837A837C
:1003A0008B839C83C6FE07C00E944E0069817A81C0
:1003B0008B819C8106C00E9448009C818B817A8140
:1003C000698169837A838B839C83C5FE07C00E9401
:1003D0004E0069817A818B819C8106C00E94480011
:1003E0009C818B817A81698169837A838B839C83E9
:1003F000C4FE07C00E944E0069817A818B819C8176
:1004000006C00E9448009C818B817A816981698342
:100410007A838B839C83C3FE07C00E944E00698150
:100420007A818B819C8106C00E9448009C818B81CF
:100430007A81698169837A838B839C83C2FE07C03A
:100440000E944E0069817A818B819C8106C00E9446
:1004500048009C818B817A81698169837A838B834F
:100460009C83C1FE07C00E944E0069817A818B8106
:100470009C8106C00E9448009C818B817A816981A1
:1004800069837A838B839C83C0FE07C00E944E00E1
:1004900069817A818B819C8106C00E9448009C8181
:1004A0008B817A81698169837A838B839C8367FFDF
:1004B00007C00E944E0069817A818B819C8106C0B1
:1004C0000E9448009C818B817A81698169837A834B
:1004D0008B839C8366FF07C00E944E0069817A81EE
:1004E0008B819C8106C00E9448009C818B817A810F
:1004F000698169837A838B839C8365FF07C00E942F
:100500004E0069817A818B819C8106C00E944800DF
:100510009C818B817A81698169837A838B839C83B7
:1005200064FF07C00E944E0069817A818B819C81A3
:1005300006C00E9448009C818B817A816981698311
:100540007A838B839C8363FF07C00E944E0069817E
:100550007A818B819C8106C00E9448009C818B819E
:100560007A81698169837A838B839C8362FF07C068
:100570000E944E0069817A818B819C8106C00E9415
:1005800048009C818B817A81698169837A838B831E
:100590009C8361FF03C00E944E0002C00E9448007D
:1005A000698160FF10C00F900F900F900F90DF9146
:1005B000CF91FF90EF90DF90CF90BF90AF909F9042
:1005C0008F900C944E000F900F900F900F90DF9132
:1005D000CF91FF90EF90DF90CF90BF90AF909F9022
:1005E0008F900C9448000F931F93CF93DF93EC01EF
:1005F0008C01045F1F4F4A81698188810E945B00E2
:100600002396C017D107B9F788E78A95F1F7DF91EC
:10061000CF911F910F9108958AB1482B4AB908953F
:100620008AB18FEF8AB981E030E020E02817A1F08D
:1006300098E13FEF3BB9000000000000000000001F
:1006400000000000000033273BB90000000000005C
:10065000915079F72F5FEACF1BB88F5F853008F094
:1006600081E02FE74DE89BE5215040409040E1F7C5
:0A06700000C00000DACFF894FFCFBD
:00000001FF
